{
  "_format": "hh-sol-artifact-1",
  "contractName": "HigherLower",
  "sourceName": "contracts/HigherLower.sol",
  "abi": [
    {
      "inputs": [],
      "name": "InvalidKMSSignatures",
      "type": "error"
    },
    {
      "inputs": [],
      "name": "ZamaProtocolUnsupported",
      "type": "error"
    },
    {
      "anonymous": false,
      "inputs": [
        {
          "indexed": true,
          "internalType": "uint256",
          "name": "gameId",
          "type": "uint256"
        },
        {
          "indexed": true,
          "internalType": "address",
          "name": "player1",
          "type": "address"
        }
      ],
      "name": "GameCreated",
      "type": "event"
    },
    {
      "anonymous": false,
      "inputs": [
        {
          "indexed": true,
          "internalType": "uint256",
          "name": "gameId",
          "type": "uint256"
        },
        {
          "indexed": false,
          "internalType": "address",
          "name": "winner",
          "type": "address"
        }
      ],
      "name": "GameFinished",
      "type": "event"
    },
    {
      "anonymous": false,
      "inputs": [
        {
          "indexed": true,
          "internalType": "uint256",
          "name": "gameId",
          "type": "uint256"
        },
        {
          "indexed": true,
          "internalType": "address",
          "name": "player2",
          "type": "address"
        }
      ],
      "name": "PlayerJoined",
      "type": "event"
    },
    {
      "anonymous": false,
      "inputs": [
        {
          "indexed": false,
          "internalType": "bytes32[]",
          "name": "handlesList",
          "type": "bytes32[]"
        },
        {
          "indexed": false,
          "internalType": "bytes",
          "name": "abiEncodedCleartexts",
          "type": "bytes"
        }
      ],
      "name": "PublicDecryptionVerified",
      "type": "event"
    },
    {
      "anonymous": false,
      "inputs": [
        {
          "indexed": true,
          "internalType": "uint256",
          "name": "gameId",
          "type": "uint256"
        },
        {
          "indexed": false,
          "internalType": "uint8",
          "name": "round",
          "type": "uint8"
        },
        {
          "indexed": false,
          "internalType": "bytes32[4]",
          "name": "handles",
          "type": "bytes32[4]"
        }
      ],
      "name": "RoundReadyToDecrypt",
      "type": "event"
    },
    {
      "anonymous": false,
      "inputs": [
        {
          "indexed": true,
          "internalType": "uint256",
          "name": "gameId",
          "type": "uint256"
        },
        {
          "indexed": false,
          "internalType": "uint8",
          "name": "round",
          "type": "uint8"
        },
        {
          "indexed": false,
          "internalType": "enum HigherLower.RoundResult",
          "name": "result",
          "type": "uint8"
        }
      ],
      "name": "RoundResolved",
      "type": "event"
    },
    {
      "inputs": [],
      "name": "confidentialProtocolId",
      "outputs": [
        {
          "internalType": "uint256",
          "name": "",
          "type": "uint256"
        }
      ],
      "stateMutability": "view",
      "type": "function"
    },
    {
      "inputs": [],
      "name": "gameCounter",
      "outputs": [
        {
          "internalType": "uint256",
          "name": "",
          "type": "uint256"
        }
      ],
      "stateMutability": "view",
      "type": "function"
    },
    {
      "inputs": [
        {
          "internalType": "uint256",
          "name": "gameId",
          "type": "uint256"
        }
      ],
      "name": "getDecryptHandles",
      "outputs": [
        {
          "internalType": "bytes32[4]",
          "name": "",
          "type": "bytes32[4]"
        }
      ],
      "stateMutability": "view",
      "type": "function"
    },
    {
      "inputs": [
        {
          "internalType": "uint256",
          "name": "gameId",
          "type": "uint256"
        }
      ],
      "name": "getGameState",
      "outputs": [
        {
          "components": [
            {
              "internalType": "address",
              "name": "player1",
              "type": "address"
            },
            {
              "internalType": "address",
              "name": "player2",
              "type": "address"
            },
            {
              "internalType": "uint8",
              "name": "currentRound",
              "type": "uint8"
            },
            {
              "internalType": "uint8",
              "name": "score1",
              "type": "uint8"
            },
            {
              "internalType": "uint8",
              "name": "score2",
              "type": "uint8"
            },
            {
              "internalType": "enum HigherLower.GameState",
              "name": "gameState",
              "type": "uint8"
            },
            {
              "internalType": "enum HigherLower.RoundResult[3]",
              "name": "roundResults",
              "type": "uint8[3]"
            },
            {
              "internalType": "uint8[3]",
              "name": "revealedCard1",
              "type": "uint8[3]"
            },
            {
              "internalType": "uint8[3]",
              "name": "revealedCard2",
              "type": "uint8[3]"
            }
          ],
          "internalType": "struct HigherLower.GameView",
          "name": "",
          "type": "tuple"
        }
      ],
      "stateMutability": "view",
      "type": "function"
    },
    {
      "inputs": [
        {
          "internalType": "uint256",
          "name": "gameId",
          "type": "uint256"
        }
      ],
      "name": "getMyCard",
      "outputs": [
        {
          "internalType": "euint8",
          "name": "",
          "type": "bytes32"
        }
      ],
      "stateMutability": "view",
      "type": "function"
    },
    {
      "inputs": [
        {
          "internalType": "uint256",
          "name": "gameId",
          "type": "uint256"
        }
      ],
      "name": "joinGame",
      "outputs": [],
      "stateMutability": "nonpayable",
      "type": "function"
    },
    {
      "inputs": [],
      "name": "newGame",
      "outputs": [
        {
          "internalType": "uint256",
          "name": "gameId",
          "type": "uint256"
        }
      ],
      "stateMutability": "nonpayable",
      "type": "function"
    },
    {
      "inputs": [
        {
          "internalType": "uint256",
          "name": "gameId",
          "type": "uint256"
        }
      ],
      "name": "readyForReveal",
      "outputs": [],
      "stateMutability": "nonpayable",
      "type": "function"
    },
    {
      "inputs": [
        {
          "internalType": "uint256",
          "name": "gameId",
          "type": "uint256"
        },
        {
          "internalType": "bytes",
          "name": "cleartexts",
          "type": "bytes"
        },
        {
          "internalType": "bytes",
          "name": "decryptionProof",
          "type": "bytes"
        }
      ],
      "name": "resolveRound",
      "outputs": [],
      "stateMutability": "nonpayable",
      "type": "function"
    }
  ],
  "bytecode": "0x608060405234801561001057600080fd5b506100c561001c6100ca565b80517f9e7b61f58c47dc699ac88507c4f5bb9f121c03808c5676a8078fe583e464970080546001600160a01b03199081166001600160a01b039384161790915560208301517f9e7b61f58c47dc699ac88507c4f5bb9f121c03808c5676a8078fe583e46497018054831691841691909117905560408301517f9e7b61f58c47dc699ac88507c4f5bb9f121c03808c5676a8078fe583e46497028054909216921691909117905550565b61027d565b6040805160608101825260008082526020820181905291810191909152466001036101655750604080516060808201835260008083526020808401829052928401528251908101835273ca2e8f1f656cd25c01f05d0b243ab1ecd4a8ffb6815273d82385dada1ae3e969447f20a3164f6213100e75918101919091527377627828a55156b04ac0dc0eb30467f1a552bb039181019190915290565b4662aa36a7036101e55750604080516060808201835260008083526020808401829052928401528251908101835273f0ffdc93b7e186bc2f8cb3daa75d86d1930a433d81527392c920834ec8941d2c77d188936e1f7a6f49c1279181019190915273be0e383937d564d7ff0bc3b46c51f0bf8d5c311a9181019190915290565b46617a6903610264575060408051606080820183526000808352602080840182905292840152825190810183527350157cffd6bbfa2dece204a89ec419c23ef5755d815273e3a9105a3a932253a70f126eb1e3b589c643dd249181019190915273901f8942346f7ab3a01f6d7613119bca447bb0309181019190915290565b6040516373cac13b60e01b815260040160405180910390fd5b611adc806200028d6000396000f3fe608060405234801561001057600080fd5b50600436106100935760003560e01c80638927b030116100665780638927b030146100e4578063afc92851146100ec578063b7a1670f1461010c578063efaa55a01461011f578063ffde0c741461013257600080fd5b8063028170581461009857806310dd0891146100be5780632e0be39a146100d35780637d03f5f3146100dc575b600080fd5b6100ab6100a6366004611578565b610152565b6040519081526020015b60405180910390f35b6100d16100cc3660046115da565b610290565b005b6100ab60015481565b6100ab6106ba565b6100ab610731565b6100ff6100fa366004611578565b610740565b6040516100b59190611654565b6100d161011a366004611578565b6107b3565b6100d161012d366004611578565b6109a8565b610145610140366004611578565b610af9565b6040516100b5919061170e565b600081815260208190526040812080546001600160a01b0316331480610184575060018101546001600160a01b031633145b6101c45760405162461bcd60e51b815260206004820152600c60248201526b3737ba103090383630bcb2b960a11b60448201526064015b60405180910390fd5b600160178201546301000000900460ff1660038111156101e6576101e6611685565b146102295760405162461bcd60e51b81526020600482015260136024820152726e6f7420696e2072657665616c20706861736560681b60448201526064016101bb565b6017810154815460ff909116906001600160a01b0316331461026a57816002018160ff166003811061025d5761025d6117d0565b6007020160010154610288565b816002018160ff1660038110610282576102826117d0565b60070201545b949350505050565b6000858152602081905260409020600260178201546301000000900460ff1660038111156102c0576102c0611685565b146102fd5760405162461bcd60e51b815260206004820152600d60248201526c6e6f74207265736f6c76696e6760981b60448201526064016101bb565b601781015460ff16600060028301826003811061031c5761031c6117d0565b6007020190506000600460405190808252806020026020018201604052801561034f578160200160208202803683370190505b50905060038201600001548160008151811061036d5761036d6117d0565b6020908102919091010152600382016001015481600181518110610393576103936117d0565b60209081029190910101526003820160020154816002815181106103b9576103b96117d0565b602090810291909101015260038083010154816003815181106103de576103de6117d0565b60200260200101818152505061045e8189898080601f01602080910402602001604051908101604052809392919081815260200183838082843760009201919091525050604080516020601f8d018190048102820181019092528b815292508b91508a9081908401838280828437600092019190915250610cc992505050565b600080808061046f8b8d018d61180a565b60028a01805460ff8084166401000000000264ff00000000199186166301000000029190911664ffff00000019909216919091171790559296509094509250905082156104ce5760028601805462ff0000191662030000179055610566565b831561051f5760028601805462ff0000191662010000179055601788018054610100900460ff1690600161050183611878565b91906101000a81548160ff021916908360ff16021790555050610566565b6002868101805462ff000019166202000017905560178901805462010000900460ff169161054c83611878565b91906101000a81548160ff021916908360ff160217905550505b8c7f301a1eee1932d9b1a6567252505db36c8c4ae8ce5edde6252f785578f5880c91888860020160029054906101000a900460ff166040516105a9929190611897565b60405180910390a28660ff166002036106745760178801805463ff00000019166303000000179081905560009060ff6201000082048116610100909204161161062157601789015460ff6101008204811662010000909204161161060e57600061062d565b60018901546001600160a01b031661062d565b88546001600160a01b03165b6040516001600160a01b03821681529091508e907fb7f35e624e036288272fbf3342c09219261ff29fdddd826989b289134e9ae5359060200160405180910390a2506106ab565b60178801805460ff1690600061068983611878565b91906101000a81548160ff021916908360ff160217905550506106ab8d610d35565b50505050505050505050505050565b60018054600091826106cb836118b7565b9091555060008181526020819052604080822080546001600160a01b03191633908117825560178201805463ff00000019169055915193945092909184917fc3e0f84839dc888c892a013d10c8f9d6dc05a21a879d0ce468ca558013e9121c9190a35090565b600061073b610edf565b905090565b6107486114df565b60008281526020819052604090206017810154600282019060ff1660038110610773576107736117d0565b604080516080810191829052926007929092029091016003019060049082845b815481526020019060010190808311610793575050505050915050919050565b6000818152602081905260409020600160178201546301000000900460ff1660038111156107e3576107e3611685565b146108265760405162461bcd60e51b81526020600482015260136024820152726e6f7420696e2072657665616c20706861736560681b60448201526064016101bb565b80546001600160a01b031633148061084a575060018101546001600160a01b031633145b6108855760405162461bcd60e51b815260206004820152600c60248201526b3737ba103090383630bcb2b960a11b60448201526064016101bb565b601781015460ff1660006002830182600381106108a4576108a46117d0565b84546007919091029190910191506001600160a01b0316330361091a57600281015460ff16156109065760405162461bcd60e51b815260206004820152600d60248201526c616c726561647920726561647960981b60448201526064016101bb565b60028101805460ff19166001179055610976565b6002810154610100900460ff16156109645760405162461bcd60e51b815260206004820152600d60248201526c616c726561647920726561647960981b60448201526064016101bb565b60028101805461ff0019166101001790555b600281015460ff16801561099357506002810154610100900460ff165b156109a2576109a28483610f16565b50505050565b600081815260208190526040902080546001600160a01b03166109fe5760405162461bcd60e51b815260206004820152600e60248201526d19d85b59481b9bdd08199bdd5b9960921b60448201526064016101bb565b600060178201546301000000900460ff166003811115610a2057610a20611685565b14610a595760405162461bcd60e51b815260206004820152600960248201526819d85b5948199d5b1b60ba1b60448201526064016101bb565b8054336001600160a01b0390911603610aab5760405162461bcd60e51b815260206004820152601460248201527331b0b73737ba10383630bc903cb7bab939b2b63360611b60448201526064016101bb565b6001810180546001600160a01b03191633179055610ac882610d35565b604051339083907f87969bc7faf902221a147b95ceba76e011c5efb0339a0a8ee7a2bb82d9cfbbd690600090a35050565b610b016114fd565b6000828152602081905260409020610b176114fd565b81546001600160a01b0390811682526001830154166020820152601782015460ff80821660408401526101008204811660608401526201000082048116608084015260a083019163010000009004166003811115610b7757610b77611685565b90816003811115610b8a57610b8a611685565b90525060005b60038160ff161015610cc157826002018160ff1660038110610bb457610bb46117d0565b6007020160020160029054906101000a900460ff168260c001518260ff1660038110610be257610be26117d0565b60200201906003811115610bf857610bf8611685565b90816003811115610c0b57610c0b611685565b9052506002830160ff821660038110610c2657610c266117d0565b6007020160020160039054906101000a900460ff168260e001518260ff1660038110610c5457610c546117d0565b602002019060ff16908160ff1681525050826002018160ff1660038110610c7d57610c7d6117d0565b6007020160020160049054906101000a900460ff168261010001518260ff1660038110610cac57610cac6117d0565b60ff9092166020929092020152600101610b90565b509392505050565b6000610cd6848484611014565b905080610cf65760405163cf6c44e960e01b815260040160405180910390fd5b7fc6366bab028b8d033cb362cfd1f2f3457ef4e92fc738b6788b90d5a7846367a08484604051610d27929190611952565b60405180910390a150505050565b60008181526020818152604080832060178101548251448186015280840187905242606082015260f882901b6001600160f81b031916608082015283516061818303018152608190910190935282519290930191909120909260ff90921691610db2610da2600d84611977565b610dad906001611999565b6110c6565b90506000610dc8610da2600d600886901c611977565b905081856002018560ff1660038110610de357610de36117d0565b6007020155806002860160ff861660038110610e0157610e016117d0565b60070201600101819055506000856002018560ff1660038110610e2657610e266117d0565b6007020160020160006101000a81548160ff0219169083151502179055506000856002018560ff1660038110610e5e57610e5e6117d0565b6007020160020160016101000a81548160ff021916908315150217905550610e85826110dc565b508454610e9c9083906001600160a01b03166110fe565b50610ea6816110dc565b506001850154610ec09082906001600160a01b03166110fe565b50505050601791909101805463ff000000191663010000001790555050565b600046600103610eef5750600190565b4662aa36a703610f00575061271190565b46617a6903610f10575060001990565b50600090565b6000828152602081905260408120906002820160ff841660038110610f3d57610f3d6117d0565b60178401805463ff000000191663020000001790556007020160018101548154919250600091610f6d9190611123565b90506000610f838360000154846001015461115c565b9050610f8e8261118e565b50610f988161118e565b508254610fa4906111ab565b50610fb283600101546111ab565b506003830182815560048401829055835460058501556001840154600685015560405187917f32f5c64e1a866460d93b477616630fa08bd84eae0748b8b6ad77a933112cb2b5916110049189916119b2565b60405180910390a2505050505050565b7f9e7b61f58c47dc699ac88507c4f5bb9f121c03808c5676a8078fe583e4649702546040516378542ead60e01b8152600091600080516020611a87833981519152916001600160a01b03909116906378542ead9061107a908890889088906004016119ed565b6020604051808303816000875af1158015611099573d6000803e3d6000fd5b505050506040513d601f19601f820116820180604052508101906110bd9190611a26565b95945050505050565b60006110d68260ff1660026111bc565b92915050565b6000816110f0576110ed60006110c6565b91505b6110fa8230611263565b5090565b6000826111125761110f60006110c6565b92505b61111c8383611263565b5090919050565b6000826111375761113460006110c6565b92505b816111495761114660006110c6565b91505b611155838360006112dd565b9392505050565b6000826111705761116d60006110c6565b92505b816111825761117f60006110c6565b91505b611155838360006113b3565b6000816111a25761119f6000611440565b91505b6110fa8261145e565b6000816111a25761119f60006110c6565b7f9e7b61f58c47dc699ac88507c4f5bb9f121c03808c5676a8078fe583e464970154604051639cd07acb60e01b8152600091600080516020611a87833981519152916001600160a01b0390911690639cd07acb906112209087908790600401611a43565b6020604051808303816000875af115801561123f573d6000803e3d6000fd5b505050506040513d601f19601f820116820180604052508101906102889190611a5a565b600080516020611a878339815191528054604051635ca4b5b160e11b8152600481018590526001600160a01b0384811660248301529091169063b9496b62906044015b600060405180830381600087803b1580156112c057600080fd5b505af11580156112d4573d6000803e3d6000fd5b50505050505050565b60008082156112f15750600160f81b6112f5565b5060005b7f9e7b61f58c47dc699ac88507c4f5bb9f121c03808c5676a8078fe583e464970154604051637210768160e01b815260048101879052602481018690526001600160f81b031983166044820152600080516020611a87833981519152916001600160a01b0316906372107681906064015b6020604051808303816000875af1158015611385573d6000803e3d6000fd5b505050506040513d601f19601f820116820180604052508101906113a99190611a5a565b9695505050505050565b60008082156113c75750600160f81b6113cb565b5060005b7f9e7b61f58c47dc699ac88507c4f5bb9f121c03808c5676a8078fe583e46497015460405163f77f3f1d60e01b815260048101879052602481018690526001600160f81b031983166044820152600080516020611a87833981519152916001600160a01b03169063f77f3f1d90606401611366565b60006110d682611451576000611454565b60015b60ff1660006111bc565b604080516001808252818301909252600080516020611a8783398151915291600091906020808301908036833701905050905082816000815181106114a5576114a56117d0565b60209081029190910101528154604051637d6e912360e11b81526001600160a01b039091169063fadd2246906112a6908490600401611a73565b60405180608001604052806004906020820280368337509192915050565b604080516101208101825260008082526020820181905291810182905260608101829052608081018290529060a0820190815260200161153b61155a565b815260200161154861155a565b815260200161155561155a565b905290565b60405180606001604052806003906020820280368337509192915050565b60006020828403121561158a57600080fd5b5035919050565b60008083601f8401126115a357600080fd5b50813567ffffffffffffffff8111156115bb57600080fd5b6020830191508360208285010111156115d357600080fd5b9250929050565b6000806000806000606086880312156115f257600080fd5b85359450602086013567ffffffffffffffff8082111561161157600080fd5b61161d89838a01611591565b9096509450604088013591508082111561163657600080fd5b5061164388828901611591565b969995985093965092949392505050565b60808101818360005b600481101561167c57815183526020928301929091019060010161165d565b50505092915050565b634e487b7160e01b600052602160045260246000fd5b600481106116ab576116ab611685565b50565b6116b78161169b565b9052565b8060005b60038110156109a25781516116d38161169b565b845260209384019391909101906001016116bf565b8060005b60038110156109a257815160ff168452602093840193909101906001016116ec565b81516001600160a01b031681526020808301516101e083019161173b908401826001600160a01b03169052565b506040830151611750604084018260ff169052565b506060830151611765606084018260ff169052565b50608083015161177a608084018260ff169052565b5060a083015161178d60a08401826116ae565b5060c08301516117a060c08401826116bb565b5060e08301516117b46101208401826116e8565b506101008301516117c96101808401826116e8565b5092915050565b634e487b7160e01b600052603260045260246000fd5b80151581146116ab57600080fd5b803560ff8116811461180557600080fd5b919050565b6000806000806080858703121561182057600080fd5b843561182b816117e6565b9350602085013561183b816117e6565b9250611849604086016117f4565b9150611857606086016117f4565b905092959194509250565b634e487b7160e01b600052601160045260246000fd5b600060ff821660ff810361188e5761188e611862565b60010192915050565b60ff83168152604081016118aa8361169b565b8260208301529392505050565b6000600182016118c9576118c9611862565b5060010190565b60008151808452602080850194506020840160005b83811015611901578151875295820195908201906001016118e5565b509495945050505050565b6000815180845260005b8181101561193257602081850181015186830182015201611916565b506000602082860101526020601f19601f83011685010191505092915050565b60408152600061196560408301856118d0565b82810360208401526110bd818561190c565b60008261199457634e487b7160e01b600052601260045260246000fd5b500690565b60ff81811683821601908111156110d6576110d6611862565b60ff8316815260a0810160208083018460005b60048110156119e2578154835291830191600191820191016119c5565b505050509392505050565b606081526000611a0060608301866118d0565b8281036020840152611a12818661190c565b905082810360408401526113a9818561190c565b600060208284031215611a3857600080fd5b8151611155816117e6565b82815260408101605483106118aa576118aa611685565b600060208284031215611a6c57600080fd5b5051919050565b60208152600061115560208301846118d056fe9e7b61f58c47dc699ac88507c4f5bb9f121c03808c5676a8078fe583e4649700a26469706673582212201c330a39a179ba4149c21cd4f498061b9e5e5a8bf9a217345fbbc1b9e6c3e57b64736f6c63430008180033",
  "linkReferences": {},
  "deployedLinkReferences": {}
}